:100000000C942A000C9461010C9461010C94610120
:100010000C9461010C9461010C9461010C946101D8
:100020000C9461010C9461010C9461010C946101C8
:100030000C9461010C9461010C9461010C946101B8
:100040000C9461010C9461010C9461010C946101A8
:100050000C94610111241FBECFE5D8E0DEBFCDBFF7
:10006000E4E5F0E040E017C0B591A5913591259108
:10007000059107FD0CC095918591EF01F92FE82FAF
:1000800005900D92A217B307D9F7FE0104C01D9287
:10009000A217B307E1F7E435F40731F70E94340102
:0800A0000C945601F894FFCF07
:1000A8004130A1F5813089F028F08230C9F08330E1
:1000B80011F108952BB381E090E002C0880F991FD9
:1000C8006A95E2F7822B8BBB089528B381E090E014
:1000D80002C0880F991F6A95E2F7822B88BB0895A2
:1000E80025B381E090E002C0880F991F6A95E2F776
:1000F800822B85BB089522B381E090E002C0880F6F
:10010800991F6A95E2F7822B82BB0895411137C087
:10011800813091F028F08230D9F0833029F10895A8
:100128002BB381E090E002C0880F991F6A95E2F72F
:10013800809582238BBB089528B381E090E002C0AC
:10014800880F991F6A95E2F78095822388BB0895E6
:1001580025B381E090E002C0880F991F6A95E2F705
:100168008095822385BB089522B381E090E002C088
:10017800880F991F6A95E2F78095822382BB0895BC
:100188004130A1F5813089F028F08230C9F0833000
:1001980011F108952AB381E090E002C0880F991FF9
:1001A8006A95E2F7822B8ABB089527B381E090E035
:1001B80002C0880F991F6A95E2F7822B87BB0895C2
:1001C80024B381E090E002C0880F991F6A95E2F796
:1001D800822B84BB089521B381E090E002C0880F90
:1001E800991F6A95E2F7822B81BB0895411137C0A8
:1001F800813091F028F08230D9F0833029F10895C8
:100208002AB381E090E002C0880F991F6A95E2F74F
:10021800809582238ABB089527B381E090E002C0CD
:10022800880F991F6A95E2F78095822387BB089506
:1002380024B381E090E002C0880F991F6A95E2F725
:100248008095822384BB089521B381E090E002C0A9
:10025800880F991F6A95E2F78095822381BB0895DC
:1002680041E060E083E00E94540041E060E083E008
:100278000E94C4002FEF83ED90E32150804090400E
:10028800E1F700C0000040E060E083E00E94C400A5
:100298002FEF83ED90E3215080409040E1F700C0BC
:0402A8000000E3CFA0
:1002AC00EC010E9466010E946501CE010E9467016B
:0602BC00CE010E94630167
:0402C2000C94000098
:0402C6000E94520040
:0202CA00089595
:0202CC00089593
:0202CE00089591
:00000001FF
