:100000000C942E000C94F8000C94F8000C94F8005A
:100010000C94F8000C94F8000C94F8000C94F80080
:100020000C94F8000C94F8000C94F8000C94F80070
:100030000C94F8000C94F8000C94F8000C94F80060
:100040000C94F8000C94F8000C94F8000C94F80050
:100050000C94F800006000740001FE0011241FBE23
:10006000CFE5D8E0DEBFCDBFE4E5F0E040E017C06B
:10007000B591A59135912591059107FD0CC09591FC
:100080008591EF01F92FE82F05900D92A217B30784
:10009000D9F7FE0104C01D92A217B307E1F7EB35B3
:1000A000F40731F70E9458000C94ED00F894FFCF4C
:1000B000CF93DF93CDB7DEB764970FB6F894DEBF6A
:1000C0000FBECDBF87E08ABB8FE784BB81BB84E1D5
:1000D000E0E6F0E0DE01119601900D928A95E1F7DD
:1000E00080E090E028C024E02BBB009769F42B89C6
:1000F00025BB298922BB2FE734E84EE1215030404F
:100100004040E1F700C00000FC01EE0FFF1F21E0BE
:1001100030E02C0F3D1FE20FF31F208125BB2B8900
:1001200022BB3FE744E82EE1315040402040E1F758
:1001300000C0000001968A309105ACF280E090E0AA
:100140001AC022E02BBBFC013696EE0FFF1F21E008
:1001500030E02C0F3D1FE20FF31F208125BB2B89C0
:1001600022BB3FE744E82EE1315040402040E1F718
:1001700000C000000196833091051CF380E090E000
:1001800028C021E02BBB009769F42B8925BB298966
:1001900022BB3FE744E82EE1315040402040E1F7E8
:1001A00000C00000FC01EE0FFF1F21E030E02C0F2B
:1001B0003D1FE20FF31F208125BB2B8922BB3FE7A8
:1001C00044E82EE1315040402040E1F700C00000FB
:0A01D00001968A309105ACF283CF4E
:1001DA00EC010E94FD000E94FC00CE010E94FE007C
:0601EA00CE010E94FA00A4
:0401F0000C9400006B
:0401F4000E9456000F
:0201F800089568
:0201FA00089566
:0201FC00089564
:1001FE006F007F0007007D006D0066004F005B0002
:04020E0006003F00A7
:00000001FF
