:100000000C942A000C94A2010C94A2010C94A2015D
:100010000C94A2010C94A2010C94A2010C94A201D4
:100020000C94A2010C94A2010C94A2010C94A201C4
:100030000C94A2010C94A2010C94A2010C94A201B4
:100040000C94A2010C94A2010C94A2010C94A201A4
:100050000C94A20111241FBECFE5D8E0DEBFCDBFB6
:10006000E4E5F0E040E017C0B591A5913591259108
:10007000059107FD0CC095918591EF01F92FE82FAF
:1000800005900D92A217B307D9F7FE0104C01D9287
:10009000A217B307E1F7E435F40731F70E946801CE
:0800A0000C949701F894FFCFC6
:1000A8004130A1F5813089F028F08230C9F08330E1
:1000B80011F108952BB381E090E002C0880F991FD9
:1000C8006A95E2F7822B8BBB089528B381E090E014
:1000D80002C0880F991F6A95E2F7822B88BB0895A2
:1000E80025B381E090E002C0880F991F6A95E2F776
:1000F800822B85BB089522B381E090E002C0880F6F
:10010800991F6A95E2F7822B82BB0895411137C087
:10011800813091F028F08230D9F0833029F10895A8
:100128002BB381E090E002C0880F991F6A95E2F72F
:10013800809582238BBB089528B381E090E002C0AC
:10014800880F991F6A95E2F78095822388BB0895E6
:1001580025B381E090E002C0880F991F6A95E2F705
:100168008095822385BB089522B381E090E002C088
:10017800880F991F6A95E2F78095822382BB0895BC
:100188004130A1F5813089F028F08230C9F0833000
:1001980011F108952AB381E090E002C0880F991FF9
:1001A8006A95E2F7822B8ABB089527B381E090E035
:1001B80002C0880F991F6A95E2F7822B87BB0895C2
:1001C80024B381E090E002C0880F991F6A95E2F796
:1001D800822B84BB089521B381E090E002C0880F90
:1001E800991F6A95E2F7822B81BB0895411137C0A8
:1001F800813091F028F08230D9F0833029F10895C8
:100208002AB381E090E002C0880F991F6A95E2F74F
:10021800809582238ABB089527B381E090E002C0CD
:10022800880F991F6A95E2F78095822387BB089506
:1002380024B381E090E002C0880F991F6A95E2F725
:100248008095822384BB089521B381E090E002C0A9
:10025800880F991F6A95E2F78095822381BB0895DC
:10026800813089F028F08230C9F0833011F1089587
:100278002AB381E090E002C0880F991F6A95E2F7DF
:1002880082278ABB089527B381E090E002C0880FD7
:10029800991F6A95E2F7822787BB089524B381E006
:1002A80090E002C0880F991F6A95E2F7822784BB05
:1002B800089521B381E090E002C0880F991F6A95E4
:0802C800E2F7822781BB0895D3
:1002D00041E060E080E00E94540041E061E080E0A5
:1002E0000E94540041E060E080E00E94C40040E0D1
:1002F00061E080E00E94C4002FEF8BE792E921507B
:1003000080409040E1F700C0000060E080E00E9483
:10031000340161E080E00E9434012FEF8BE792E925
:0E032000215080409040E1F700C00000DBCF8C
:10032E00EC010E94A7010E94A601CE010E94A80125
:06033E00CE010E94A401A3
:040344000C94000015
:040348000E945200BD
:02034C00089512
:02034E00089510
:0203500008950E
:00000001FF
