:100000000C942A000C947F010C947F010C947F01C6
:100010000C947F010C947F010C947F010C947F0160
:100020000C947F010C947F010C947F010C947F0150
:100030000C947F010C947F010C947F010C947F0140
:100040000C947F010C947F010C947F010C947F0130
:100050000C947F0111241FBECFE5D8E0DEBFCDBFD9
:10006000E4E5F0E040E017C0B591A5913591259108
:10007000059107FD0CC095918591EF01F92FE82FAF
:1000800005900D92A217B307D9F7FE0104C01D9287
:10009000A217B307E1F7E435F40731F70E947501C1
:0800A0000C946A01F894FFCFF3
:1000A8004130A1F5813089F028F08230C9F08330E1
:1000B80011F108952AB381E090E002C0880F991FDA
:1000C8006A95E2F7822B8ABB089527B381E090E016
:1000D80002C0880F991F6A95E2F7822B87BB0895A3
:1000E80024B381E090E002C0880F991F6A95E2F777
:1000F800822B84BB089521B381E090E002C0880F71
:10010800991F6A95E2F7822B81BB0895411137C088
:10011800813091F028F08230D9F0833029F10895A8
:100128002AB381E090E002C0880F991F6A95E2F730
:10013800809582238ABB089527B381E090E002C0AE
:10014800880F991F6A95E2F78095822387BB0895E7
:1001580024B381E090E002C0880F991F6A95E2F706
:100168008095822384BB089521B381E090E002C08A
:10017800880F991F6A95E2F78095822381BB0895BD
:100188000F931F93CF93DF9300D000D0CDB7DEB786
:10019800082F84E0898385E08A8386E08B8387E063
:1001A8008C8310E014C0402F50E0012E02C05595FA
:1001B80047950A94E2F74170E1E0F0E0EC0FFD1F8B
:1001C800E10FF11D608180E00E9454001F5F143030
:1001D80050F30F900F900F900F90DF91CF911F91D8
:0401E8000F910895D6
:1001EC002FEF83EF91E0215080409040E1F700C069
:1001FC00000082E00E94C4000E94490182E00E943B
:10020C00C4000E94490188E00E94C4000E94490178
:0E021C008CE00E942F0181E00E942F010895C6
:10022A00CF93C82F41E061E080E00E94540040E093
:10023A0062E080E00E9454008C2F82958F700E94A9
:10024A00C4000E9449018C2F0E94C4000E944901E7
:04025A00CF910895A3
:10025E00CF93C82F40E061E080E00E94540040E060
:10026E0062E080E00E9454008C2F82958F700E9475
:10027E00C4000E9449018C2F0E94C4000E944901B3
:04028E00CF9108956F
:1002920041E063E080E00E9454008FE39FE1019718
:1002A200F1F700C0000040E063E080E00E945400EB
:0202B2000895AD
:1002B400813041F028F0823039F0833039F00895EC
:1002C4006BBB089568BB089565BB089562BB089530
:1002D400EC010E9484010E948301CE010E948501E9
:0602E400CE010E94810121
:1002EA0061E080E00E945A010E94F60082E50E94C5
:0402FA001501FFCF1C
:0402FE000C9400005C
:040302000E94520003
:02030600089558
:02030800089556
:02030A00089554
:00000001FF
