:100000000C942E000C942C020C942C020C942C02B8
:100010000C942C020C942C020C942C020C942C02A8
:100020000C942C020C942C020C942C020C942C0298
:100030000C942C020C942C020C942C020C942C0288
:100040000C942C020C942C020C942C020C942C0278
:100050000C942C02006000740004660011241FBE82
:10006000CFE5D8E0DEBFCDBFE4E5F0E040E017C06B
:10007000B591A59135912591059107FD0CC09591FC
:100080008591EF01F92FE82F05900D92A217B30784
:10009000D9F7FE0104C01D92A217B307E1F7EB35B3
:1000A000F40731F70E9458000C941102F894FFCF26
:1000B00060E080E00E941C0261E080E00E941C027F
:1000C00062E080E00E941C0282E00E94280283E03D
:1000D0000E942802C0E02DC062E080E00E94200261
:1000E000C11111C069E082E00E94CC0168E083E0A8
:1000F0000E94CC012FEF89E698E12150804090408A
:10010000E1F700C000006C2F82E00E94CC0169E0A2
:1001100083E00E94CC012FEF89E698E121508040D6
:100120009040E1F700C0000062E080E00E942402FD
:10013000CF5FCA3088F2C0E01BC061E080E00E945F
:10014000200266E06C0F82E00E94CC0169E083E04F
:100150000E94CC012FEF89E698E121508040904029
:10016000E1F700C0000061E080E00E942402CF5F60
:10017000C33018F3C0E02DC060E080E00E94200290
:10018000C11111C069E082E00E94CC0168E083E007
:100190000E94CC012FEF89E698E1215080409040E9
:1001A000E1F700C000006C2F82E00E94CC0169E002
:1001B00083E00E94CC012FEF89E698E12150804036
:1001C0009040E1F700C0000060E080E00E9424025F
:0801D000CF5FCA3088F27ECF38
:1001D8004130A1F5813089F028F08230C9F08330B0
:1001E80011F108952BB381E090E002C0880F991FA8
:1001F8006A95E2F7822B8BBB089528B381E090E0E3
:1002080002C0880F991F6A95E2F7822B88BB089570
:1002180025B381E090E002C0880F991F6A95E2F744
:10022800822B85BB089522B381E090E002C0880F3D
:10023800991F6A95E2F7822B82BB0895411137C056
:10024800813091F028F08230D9F0833029F1089577
:100258002BB381E090E002C0880F991F6A95E2F7FE
:10026800809582238BBB089528B381E090E002C07B
:10027800880F991F6A95E2F78095822388BB0895B5
:1002880025B381E090E002C0880F991F6A95E2F7D4
:100298008095822385BB089522B381E090E002C057
:1002A800880F991F6A95E2F78095822382BB08958B
:1002B8004130A1F5813089F028F08230C9F08330CF
:1002C80011F108952AB381E090E002C0880F991FC8
:1002D8006A95E2F7822B8ABB089527B381E090E004
:1002E80002C0880F991F6A95E2F7822B87BB089591
:1002F80024B381E090E002C0880F991F6A95E2F765
:10030800822B84BB089521B381E090E002C0880F5E
:10031800991F6A95E2F7822B81BB0895411137C076
:10032800813091F028F08230D9F0833029F1089596
:100338002AB381E090E002C0880F991F6A95E2F71E
:10034800809582238ABB089527B381E090E002C09C
:10035800880F991F6A95E2F78095822387BB0895D5
:1003680024B381E090E002C0880F991F6A95E2F7F4
:100378008095822384BB089521B381E090E002C078
:10038800880F991F6A95E2F78095822381BB0895AB
:10039800CF93DF93CDB7DEB72A970FB6F894DEBFB9
:1003A8000FBECDBF9AE0EAE6F0E0DE0111960190BB
:1003B8000D929A95E1F7E1E0F0E0EC0FFD1FE60FF2
:1003C800F11D60810E9401022A960FB6F894DEBFE3
:0A03D8000FBECDBFDF91CF91089555
:1003E200813041F028F0823039F0833039F00895BD
:1003F2006BBB089568BB089565BB089562BB089501
:10040200813041F028F0823039F0833039F008959C
:100412006ABB089567BB089564BB089561BB0895E4
:10042200EC010E9431020E943002CE010E9432028F
:06043200CE010E942E0223
:0804380041E00E94EC00089570
:0804400041E00E945C010895F7
:0804480040E00E945C010895F0
:080450006FEF0E94F101089515
:040458000C94000000
:04045C000E945600A4
:020460000895FD
:020462000895FB
:020464000895F9
:100466003F065B4F666D7D077F6F6F7F077D6D660D
:040476004F5B063F93
:00000001FF
