:100000000C942A000C94A1010C94A1010C94A10160
:100010000C94A1010C94A1010C94A1010C94A101D8
:100020000C94A1010C94A1010C94A1010C94A101C8
:100030000C94A1010C94A1010C94A1010C94A101B8
:100040000C94A1010C94A1010C94A1010C94A101A8
:100050000C94A10111241FBECFE5D8E0DEBFCDBFB7
:10006000E4E5F0E040E017C0B591A5913591259108
:10007000059107FD0CC095918591EF01F92FE82FAF
:1000800005900D92A217B307D9F7FE0104C01D9287
:10009000A217B307E1F7E435F40731F70E946201D4
:0800A0000C948301F894FFCFDA
:1000A8004130A1F5813089F028F08230C9F08330E1
:1000B80011F108952BB381E090E002C0880F991FD9
:1000C8006A95E2F7822B8BBB089528B381E090E014
:1000D80002C0880F991F6A95E2F7822B88BB0895A2
:1000E80025B381E090E002C0880F991F6A95E2F776
:1000F800822B85BB089522B381E090E002C0880F6F
:10010800991F6A95E2F7822B82BB0895411137C087
:10011800813091F028F08230D9F0833029F10895A8
:100128002BB381E090E002C0880F991F6A95E2F72F
:10013800809582238BBB089528B381E090E002C0AC
:10014800880F991F6A95E2F78095822388BB0895E6
:1001580025B381E090E002C0880F991F6A95E2F705
:100168008095822385BB089522B381E090E002C088
:10017800880F991F6A95E2F78095822382BB0895BC
:100188004130A1F5813089F028F08230C9F0833000
:1001980011F108952AB381E090E002C0880F991FF9
:1001A8006A95E2F7822B8ABB089527B381E090E035
:1001B80002C0880F991F6A95E2F7822B87BB0895C2
:1001C80024B381E090E002C0880F991F6A95E2F796
:1001D800822B84BB089521B381E090E002C0880F90
:1001E800991F6A95E2F7822B81BB0895411137C0A8
:1001F800813091F028F08230D9F0833029F10895C8
:100208002AB381E090E002C0880F991F6A95E2F74F
:10021800809582238ABB089527B381E090E002C0CD
:10022800880F991F6A95E2F78095822387BB089506
:1002380024B381E090E002C0880F991F6A95E2F725
:100248008095822384BB089521B381E090E002C0A9
:10025800880F991F6A95E2F78095822381BB0895DC
:10026800813079F028F08230A9F08330E1F024C0A1
:1002780089B390E002C0959587956A95E2F78170F9
:10028800089586B390E002C0959587956A95E2F740
:100298008170089583B390E002C0959587956A951B
:1002A800E2F78170089580B390E002C09595879534
:0C02B8006A95E2F78170089580E00895D7
:1002C40060E080E00E949A0160E083E00E948E0179
:1002D4002FEF83EC99E0215080409040E1F700C07B
:1002E400000060E080E00E949E01813029F460E01B
:1002F40083E00E949201ECCF60E083E00E949601CB
:02030400E7CF41
:10030600EC010E94A6010E94A501CE010E94A70150
:06031600CE010E94A301CC
:08031C0041E00E945400089525
:0803240041E00E94C4000895AD
:08032C0040E00E94C4000895A6
:0803340040E00E94540008950E
:06033C000E943401089547
:040342000C94000017
:040346000E945200BF
:02034A00089514
:02034C00089512
:02034E00089510
:00000001FF
