:100000000C942E000C9494000C9494000C94940086
:100010000C9494000C9494000C9494000C94940010
:100020000C9494000C9494000C9494000C94940000
:100030000C9494000C9494000C9494000C949400F0
:100040000C9494000C9494000C9494000C949400E0
:100050000C949400006000740001360011241FBE4F
:10006000CFE5D8E0DEBFCDBFE4E5F0E040E017C06B
:10007000B591A59135912591059107FD0CC09591FC
:100080008591EF01F92FE82F05900D92A217B30784
:10009000D9F7FE0104C01D92A217B307E1F7EB35B3
:1000A000F40731F70E9458000C948900F894FFCFB0
:1000B000CF93DF93CDB7DEB764970FB6F894DEBF6A
:1000C0000FBECDBF84E1E0E6F0E0DE0111960190C5
:1000D0000D928A95E1F78FE781BB80E090E015C033
:1000E000FC01EE0FFF1F21E030E02C0F3D1FE20F5F
:1000F000F31F208122BB3FE744E82EE1315040400E
:100100002040E1F700C0000001968A30910544F3D9
:02011000E4CF3A
:10011200EC010E9499000E949800CE010E949A0070
:06012200CE010E949600D0
:040128000C94000033
:04012C000E945600D7
:02013000089530
:0201320008952E
:0201340008952C
:100136003F0006005B004F0066006D007D00070073
:040146007F006F00C7
:00000001FF
