:100000000C942E000C94C4000C94C4000C94C400F6
:100010000C94C4000C94C4000C94C4000C94C40050
:100020000C94C4000C94C4000C94C4000C94C40040
:100030000C94C4000C94C4000C94C4000C94C40030
:100040000C94C4000C94C4000C94C4000C94C40020
:100050000C94C4000060006A0001960011241FBEC9
:10006000CFE5D8E0DEBFCDBFE4E5F0E040E017C06B
:10007000B591A59135912591059107FD0CC09591FC
:100080008591EF01F92FE82F05900D92A217B30784
:10009000D9F7FE0104C01D92A217B307E1F7EB35B3
:1000A000F40731F70E947D000C94B500F894FFCF5F
:1000B000CF93DF93CDB7DEB72A970FB6F894DEBFA4
:1000C0000FBECDBF9AE0E0E6F0E0DE0111960190B0
:1000D0000D929A95E1F7E1E0F0E0EC0FFD1FE60FDD
:1000E000F11D60810E94A5002A960FB6F894DEBF2C
:0A00F0000FBECDBFDF91CF91089540
:1000FA0083E00E94C000C0E0D0E00EC06C2F83E015
:10010A000E9458002FEF83ED90E3215080409040E9
:10011A00E1F700C000002196CA30D1057CF3EBCF8D
:10012A00813041F028F0823039F0833039F0089577
:10013A006BBB089568BB089565BB089562BB0895BB
:10014A00813041F028F0823039F0833039F0089557
:10015A006ABB089567BB089564BB089561BB08959F
:10016A00EC010E94C9000E94C800CE010E94CA0088
:06017A00CE010E94C60048
:080180006FEF0E949500089545
:040188000C940000D3
:04018C000E94560077
:020190000895D0
:020192000895CE
:020194000895CC
:0A0196003F065B4F666D7D077F6F2B
:00000001FF
